{
  "_format": "hh-sol-artifact-1",
  "contractName": "CTC7",
  "sourceName": "contracts/CTC7(ERC20Token).sol",
  "abi": [
    {
      "inputs": [],
      "stateMutability": "nonpayable",
      "type": "constructor"
    },
    {
      "anonymous": false,
      "inputs": [
        {
          "indexed": true,
          "internalType": "address",
          "name": "owner",
          "type": "address"
        },
        {
          "indexed": true,
          "internalType": "address",
          "name": "spender",
          "type": "address"
        },
        {
          "indexed": false,
          "internalType": "uint256",
          "name": "value",
          "type": "uint256"
        }
      ],
      "name": "Approval",
      "type": "event"
    },
    {
      "anonymous": false,
      "inputs": [
        {
          "indexed": true,
          "internalType": "address",
          "name": "previousOwner",
          "type": "address"
        },
        {
          "indexed": true,
          "internalType": "address",
          "name": "newOwner",
          "type": "address"
        }
      ],
      "name": "OwnershipTransferred",
      "type": "event"
    },
    {
      "anonymous": false,
      "inputs": [
        {
          "indexed": true,
          "internalType": "address",
          "name": "from",
          "type": "address"
        },
        {
          "indexed": true,
          "internalType": "address",
          "name": "to",
          "type": "address"
        },
        {
          "indexed": false,
          "internalType": "uint256",
          "name": "value",
          "type": "uint256"
        }
      ],
      "name": "Transfer",
      "type": "event"
    },
    {
      "inputs": [
        {
          "internalType": "address",
          "name": "owner",
          "type": "address"
        },
        {
          "internalType": "address",
          "name": "spender",
          "type": "address"
        }
      ],
      "name": "allowance",
      "outputs": [
        {
          "internalType": "uint256",
          "name": "",
          "type": "uint256"
        }
      ],
      "stateMutability": "view",
      "type": "function"
    },
    {
      "inputs": [
        {
          "internalType": "address",
          "name": "spender",
          "type": "address"
        },
        {
          "internalType": "uint256",
          "name": "amount",
          "type": "uint256"
        }
      ],
      "name": "approve",
      "outputs": [
        {
          "internalType": "bool",
          "name": "",
          "type": "bool"
        }
      ],
      "stateMutability": "nonpayable",
      "type": "function"
    },
    {
      "inputs": [
        {
          "internalType": "address",
          "name": "account",
          "type": "address"
        }
      ],
      "name": "balanceOf",
      "outputs": [
        {
          "internalType": "uint256",
          "name": "",
          "type": "uint256"
        }
      ],
      "stateMutability": "view",
      "type": "function"
    },
    {
      "inputs": [
        {
          "internalType": "uint256",
          "name": "amount",
          "type": "uint256"
        }
      ],
      "name": "burn",
      "outputs": [],
      "stateMutability": "nonpayable",
      "type": "function"
    },
    {
      "inputs": [
        {
          "internalType": "address",
          "name": "account",
          "type": "address"
        },
        {
          "internalType": "uint256",
          "name": "amount",
          "type": "uint256"
        }
      ],
      "name": "burnFrom",
      "outputs": [],
      "stateMutability": "nonpayable",
      "type": "function"
    },
    {
      "inputs": [],
      "name": "decimals",
      "outputs": [
        {
          "internalType": "uint8",
          "name": "",
          "type": "uint8"
        }
      ],
      "stateMutability": "view",
      "type": "function"
    },
    {
      "inputs": [
        {
          "internalType": "address",
          "name": "spender",
          "type": "address"
        },
        {
          "internalType": "uint256",
          "name": "subtractedValue",
          "type": "uint256"
        }
      ],
      "name": "decreaseAllowance",
      "outputs": [
        {
          "internalType": "bool",
          "name": "",
          "type": "bool"
        }
      ],
      "stateMutability": "nonpayable",
      "type": "function"
    },
    {
      "inputs": [],
      "name": "getOwner",
      "outputs": [
        {
          "internalType": "address",
          "name": "",
          "type": "address"
        }
      ],
      "stateMutability": "view",
      "type": "function"
    },
    {
      "inputs": [
        {
          "internalType": "address",
          "name": "spender",
          "type": "address"
        },
        {
          "internalType": "uint256",
          "name": "addedValue",
          "type": "uint256"
        }
      ],
      "name": "increaseAllowance",
      "outputs": [
        {
          "internalType": "bool",
          "name": "",
          "type": "bool"
        }
      ],
      "stateMutability": "nonpayable",
      "type": "function"
    },
    {
      "inputs": [
        {
          "internalType": "uint256",
          "name": "_mintamount",
          "type": "uint256"
        }
      ],
      "name": "mint",
      "outputs": [],
      "stateMutability": "nonpayable",
      "type": "function"
    },
    {
      "inputs": [],
      "name": "name",
      "outputs": [
        {
          "internalType": "string",
          "name": "",
          "type": "string"
        }
      ],
      "stateMutability": "view",
      "type": "function"
    },
    {
      "inputs": [],
      "name": "owner",
      "outputs": [
        {
          "internalType": "address",
          "name": "",
          "type": "address"
        }
      ],
      "stateMutability": "view",
      "type": "function"
    },
    {
      "inputs": [],
      "name": "renounceOwnership",
      "outputs": [],
      "stateMutability": "nonpayable",
      "type": "function"
    },
    {
      "inputs": [],
      "name": "symbol",
      "outputs": [
        {
          "internalType": "string",
          "name": "",
          "type": "string"
        }
      ],
      "stateMutability": "view",
      "type": "function"
    },
    {
      "inputs": [],
      "name": "totalSupply",
      "outputs": [
        {
          "internalType": "uint256",
          "name": "",
          "type": "uint256"
        }
      ],
      "stateMutability": "view",
      "type": "function"
    },
    {
      "inputs": [
        {
          "internalType": "address",
          "name": "recipient",
          "type": "address"
        },
        {
          "internalType": "uint256",
          "name": "amount",
          "type": "uint256"
        }
      ],
      "name": "transfer",
      "outputs": [
        {
          "internalType": "bool",
          "name": "",
          "type": "bool"
        }
      ],
      "stateMutability": "nonpayable",
      "type": "function"
    },
    {
      "inputs": [
        {
          "internalType": "address",
          "name": "sender",
          "type": "address"
        },
        {
          "internalType": "address",
          "name": "recipient",
          "type": "address"
        },
        {
          "internalType": "uint256",
          "name": "amount",
          "type": "uint256"
        }
      ],
      "name": "transferFrom",
      "outputs": [
        {
          "internalType": "bool",
          "name": "",
          "type": "bool"
        }
      ],
      "stateMutability": "nonpayable",
      "type": "function"
    },
    {
      "inputs": [
        {
          "internalType": "address",
          "name": "newOwner",
          "type": "address"
        }
      ],
      "name": "transferOwnership",
      "outputs": [],
      "stateMutability": "nonpayable",
      "type": "function"
    }
  ],
  "bytecode": "0x60806040523480156200001157600080fd5b5062000032620000266200020a60201b60201c565b6200021260201b60201c565b6040518060400160405280601a81526020017f437962657274726f6e636861696e20536576656e20746f6b656e000000000000815250600690805190602001906200007f929190620002d6565b506040518060400160405280600481526020017f435443370000000000000000000000000000000000000000000000000000000081525060059080519060200190620000cd929190620002d6565b506012600460006101000a81548160ff021916908360ff160217905550600460009054906101000a900460ff16600a6200010891906200040f565b6305f5e1006200011991906200054c565b600381905550600460009054906101000a900460ff16600a6200013d91906200040f565b6334fb5e386200014e91906200054c565b600781905550600354600160003373ffffffffffffffffffffffffffffffffffffffff1673ffffffffffffffffffffffffffffffffffffffff168152602001908152602001600020819055503373ffffffffffffffffffffffffffffffffffffffff16600073ffffffffffffffffffffffffffffffffffffffff167fddf252ad1be2c89b69c2b068fc378daa952ba7f163c4a11628f55a4df523b3ef600354604051620001fc919062000397565b60405180910390a362000665565b600033905090565b60008060009054906101000a900473ffffffffffffffffffffffffffffffffffffffff169050816000806101000a81548173ffffffffffffffffffffffffffffffffffffffff021916908373ffffffffffffffffffffffffffffffffffffffff1602179055508173ffffffffffffffffffffffffffffffffffffffff168173ffffffffffffffffffffffffffffffffffffffff167f8be0079c531659141344cd1fd0a4f28419497f9722a3daafe3b4186f6b6457e060405160405180910390a35050565b828054620002e490620005c4565b90600052602060002090601f01602090048101928262000308576000855562000354565b82601f106200032357805160ff191683800117855562000354565b8280016001018555821562000354579182015b828111156200035357825182559160200191906001019062000336565b5b50905062000363919062000367565b5090565b5b808211156200038257600081600090555060010162000368565b5090565b6200039181620005ad565b82525050565b6000602082019050620003ae600083018462000386565b92915050565b6000808291508390505b60018511156200040657808604811115620003de57620003dd620005fa565b5b6001851615620003ee5780820291505b8081029050620003fe8562000658565b9450620003be565b94509492505050565b60006200041c82620005ad565b91506200042983620005b7565b9250620004587fffffffffffffffffffffffffffffffffffffffffffffffffffffffffffffffff848462000460565b905092915050565b60008262000472576001905062000545565b8162000482576000905062000545565b81600181146200049b5760028114620004a657620004dc565b600191505062000545565b60ff841115620004bb57620004ba620005fa565b5b8360020a915084821115620004d557620004d4620005fa565b5b5062000545565b5060208310610133831016604e8410600b8410161715620005165782820a90508381111562000510576200050f620005fa565b5b62000545565b620005258484846001620003b4565b925090508184048111156200053f576200053e620005fa565b5b81810290505b9392505050565b60006200055982620005ad565b91506200056683620005ad565b9250817fffffffffffffffffffffffffffffffffffffffffffffffffffffffffffffffff0483118215151615620005a257620005a1620005fa565b5b828202905092915050565b6000819050919050565b600060ff82169050919050565b60006002820490506001821680620005dd57607f821691505b60208210811415620005f457620005f362000629565b5b50919050565b7f4e487b7100000000000000000000000000000000000000000000000000000000600052601160045260246000fd5b7f4e487b7100000000000000000000000000000000000000000000000000000000600052602260045260246000fd5b60008160011c9050919050565b611e9080620006756000396000f3fe608060405234801561001057600080fd5b50600436106101165760003560e01c806379cc6790116100a2578063a0712d6811610071578063a0712d68146102d1578063a457c2d7146102ed578063a9059cbb1461031d578063dd62ed3e1461034d578063f2fde38b1461037d57610116565b806379cc67901461025b578063893d20e8146102775780638da5cb5b1461029557806395d89b41146102b357610116565b8063313ce567116100e9578063313ce567146101b757806339509351146101d557806342966c681461020557806370a0823114610221578063715018a61461025157610116565b806306fdde031461011b578063095ea7b31461013957806318160ddd1461016957806323b872dd14610187575b600080fd5b610123610399565b604051610130919061166b565b60405180910390f35b610153600480360381019061014e919061143b565b61042b565b6040516101609190611650565b60405180910390f35b610171610449565b60405161017e919061178d565b60405180910390f35b6101a1600480360381019061019c91906113e8565b610453565b6040516101ae9190611650565b60405180910390f35b6101bf61046b565b6040516101cc91906117a8565b60405180910390f35b6101ef60048036038101906101ea919061143b565b610482565b6040516101fc9190611650565b60405180910390f35b61021f600480360381019061021a919061147b565b610535565b005b61023b6004803603810190610236919061137b565b610549565b604051610248919061178d565b60405180910390f35b610259610592565b005b6102756004803603810190610270919061143b565b61061a565b005b61027f6106ef565b60405161028c9190611635565b60405180910390f35b61029d6106fe565b6040516102aa9190611635565b60405180910390f35b6102bb610727565b6040516102c8919061166b565b60405180910390f35b6102eb60048036038101906102e6919061147b565b6107b9565b005b6103076004803603810190610302919061143b565b61099d565b6040516103149190611650565b60405180910390f35b6103376004803603810190610332919061143b565b610a6a565b6040516103449190611650565b60405180910390f35b610367600480360381019061036291906113a8565b610a88565b604051610374919061178d565b60405180910390f35b6103976004803603810190610392919061137b565b610b0f565b005b6060600680546103a890611abc565b80601f01602080910402602001604051908101604052809291908181526020018280546103d490611abc565b80156104215780601f106103f657610100808354040283529160200191610421565b820191906000526020600020905b81548152906001019060200180831161040457829003601f168201915b5050505050905090565b600061043f610438610c07565b8484610c0f565b6001905092915050565b6000600354905090565b6000610460848484610dda565b600190509392505050565b6000600460009054906101000a900460ff16905090565b600061052b61048f610c07565b8461052685600260006104a0610c07565b73ffffffffffffffffffffffffffffffffffffffff1673ffffffffffffffffffffffffffffffffffffffff16815260200190815260200160002060008973ffffffffffffffffffffffffffffffffffffffff1673ffffffffffffffffffffffffffffffffffffffff1681526020019081526020016000205461106890919063ffffffff16565b610c0f565b6001905092915050565b610546610540610c07565b8261107e565b50565b6000600160008373ffffffffffffffffffffffffffffffffffffffff1673ffffffffffffffffffffffffffffffffffffffff168152602001908152602001600020549050919050565b61059a610c07565b73ffffffffffffffffffffffffffffffffffffffff166105b86106fe565b73ffffffffffffffffffffffffffffffffffffffff161461060e576040517f08c379a00000000000000000000000000000000000000000000000000000000081526004016106059061170d565b60405180910390fd5b6106186000611222565b565b60006106cc82604051806060016040528060248152602001611e1260249139600260008773ffffffffffffffffffffffffffffffffffffffff1673ffffffffffffffffffffffffffffffffffffffff1681526020019081526020016000206000610682610c07565b73ffffffffffffffffffffffffffffffffffffffff1673ffffffffffffffffffffffffffffffffffffffff168152602001908152602001600020546112e69092919063ffffffff16565b90506106e0836106da610c07565b83610c0f565b6106ea838361107e565b505050565b60006106f96106fe565b905090565b60008060009054906101000a900473ffffffffffffffffffffffffffffffffffffffff16905090565b60606005805461073690611abc565b80601f016020809104026020016040519081016040528092919081815260200182805461076290611abc565b80156107af5780601f10610784576101008083540402835291602001916107af565b820191906000526020600020905b81548152906001019060200180831161079257829003601f168201915b5050505050905090565b6107c1610c07565b73ffffffffffffffffffffffffffffffffffffffff166107df6106fe565b73ffffffffffffffffffffffffffffffffffffffff1614610835576040517f08c379a000000000000000000000000000000000000000000000000000000000815260040161082c9061170d565b60405180910390fd5b600354600460009054906101000a900460ff16600a6108549190611888565b8261085f91906119a6565b61086991906117df565b600754116108ac576040517f08c379a00000000000000000000000000000000000000000000000000000000081526004016108a3906116ed565b60405180910390fd5b6000670de0b6b3a7640000826108c291906119a6565b905080600360008282546108d691906117df565b9250508190555080600160003373ffffffffffffffffffffffffffffffffffffffff1673ffffffffffffffffffffffffffffffffffffffff168152602001908152602001600020600082825461092c91906117df565b925050819055503373ffffffffffffffffffffffffffffffffffffffff16600073ffffffffffffffffffffffffffffffffffffffff167fddf252ad1be2c89b69c2b068fc378daa952ba7f163c4a11628f55a4df523b3ef83604051610991919061178d565b60405180910390a35050565b6000610a606109aa610c07565b84610a5b85604051806060016040528060258152602001611e3660259139600260006109d4610c07565b73ffffffffffffffffffffffffffffffffffffffff1673ffffffffffffffffffffffffffffffffffffffff16815260200190815260200160002060008a73ffffffffffffffffffffffffffffffffffffffff1673ffffffffffffffffffffffffffffffffffffffff168152602001908152602001600020546112e69092919063ffffffff16565b610c0f565b6001905092915050565b6000610a7e610a77610c07565b8484610dda565b6001905092915050565b6000600260008473ffffffffffffffffffffffffffffffffffffffff1673ffffffffffffffffffffffffffffffffffffffff16815260200190815260200160002060008373ffffffffffffffffffffffffffffffffffffffff1673ffffffffffffffffffffffffffffffffffffffff16815260200190815260200160002054905092915050565b610b17610c07565b73ffffffffffffffffffffffffffffffffffffffff16610b356106fe565b73ffffffffffffffffffffffffffffffffffffffff1614610b8b576040517f08c379a0000000000000000000000000000000000000000000000000000000008152600401610b829061170d565b60405180910390fd5b600073ffffffffffffffffffffffffffffffffffffffff168173ffffffffffffffffffffffffffffffffffffffff161415610bfb576040517f08c379a0000000000000000000000000000000000000000000000000000000008152600401610bf2906116ad565b60405180910390fd5b610c0481611222565b50565b600033905090565b600073ffffffffffffffffffffffffffffffffffffffff168373ffffffffffffffffffffffffffffffffffffffff161415610c7f576040517f08c379a0000000000000000000000000000000000000000000000000000000008152600401610c769061176d565b60405180910390fd5b600073ffffffffffffffffffffffffffffffffffffffff168273ffffffffffffffffffffffffffffffffffffffff161415610cef576040517f08c379a0000000000000000000000000000000000000000000000000000000008152600401610ce6906116cd565b60405180910390fd5b80600260008573ffffffffffffffffffffffffffffffffffffffff1673ffffffffffffffffffffffffffffffffffffffff16815260200190815260200160002060008473ffffffffffffffffffffffffffffffffffffffff1673ffffffffffffffffffffffffffffffffffffffff168152602001908152602001600020819055508173ffffffffffffffffffffffffffffffffffffffff168373ffffffffffffffffffffffffffffffffffffffff167f8c5be1e5ebec7d5bd14f71427d1e84f3dd0314c0f7b2291e5b200ac8c7c3b92583604051610dcd919061178d565b60405180910390a3505050565b600073ffffffffffffffffffffffffffffffffffffffff168373ffffffffffffffffffffffffffffffffffffffff161415610e4a576040517f08c379a0000000000000000000000000000000000000000000000000000000008152600401610e419061174d565b60405180910390fd5b600073ffffffffffffffffffffffffffffffffffffffff168273ffffffffffffffffffffffffffffffffffffffff161415610eba576040517f08c379a0000000000000000000000000000000000000000000000000000000008152600401610eb19061168d565b60405180910390fd5b610f2681604051806060016040528060268152602001611dec60269139600160008773ffffffffffffffffffffffffffffffffffffffff1673ffffffffffffffffffffffffffffffffffffffff168152602001908152602001600020546112e69092919063ffffffff16565b600160008573ffffffffffffffffffffffffffffffffffffffff1673ffffffffffffffffffffffffffffffffffffffff16815260200190815260200160002081905550610fbb81600160008573ffffffffffffffffffffffffffffffffffffffff1673ffffffffffffffffffffffffffffffffffffffff1681526020019081526020016000205461106890919063ffffffff16565b600160008473ffffffffffffffffffffffffffffffffffffffff1673ffffffffffffffffffffffffffffffffffffffff168152602001908152602001600020819055508173ffffffffffffffffffffffffffffffffffffffff168373ffffffffffffffffffffffffffffffffffffffff167fddf252ad1be2c89b69c2b068fc378daa952ba7f163c4a11628f55a4df523b3ef8360405161105b919061178d565b60405180910390a3505050565b6000818361107691906117df565b905092915050565b600073ffffffffffffffffffffffffffffffffffffffff168273ffffffffffffffffffffffffffffffffffffffff1614156110ee576040517f08c379a00000000000000000000000000000000000000000000000000000000081526004016110e59061172d565b60405180910390fd5b61115a81604051806060016040528060228152602001611dca60229139600160008673ffffffffffffffffffffffffffffffffffffffff1673ffffffffffffffffffffffffffffffffffffffff168152602001908152602001600020546112e69092919063ffffffff16565b600160008473ffffffffffffffffffffffffffffffffffffffff1673ffffffffffffffffffffffffffffffffffffffff168152602001908152602001600020819055506111b28160035461133b90919063ffffffff16565b600381905550600073ffffffffffffffffffffffffffffffffffffffff168273ffffffffffffffffffffffffffffffffffffffff167fddf252ad1be2c89b69c2b068fc378daa952ba7f163c4a11628f55a4df523b3ef83604051611216919061178d565b60405180910390a35050565b60008060009054906101000a900473ffffffffffffffffffffffffffffffffffffffff169050816000806101000a81548173ffffffffffffffffffffffffffffffffffffffff021916908373ffffffffffffffffffffffffffffffffffffffff1602179055508173ffffffffffffffffffffffffffffffffffffffff168173ffffffffffffffffffffffffffffffffffffffff167f8be0079c531659141344cd1fd0a4f28419497f9722a3daafe3b4186f6b6457e060405160405180910390a35050565b600083831115829061132e576040517f08c379a0000000000000000000000000000000000000000000000000000000008152600401611325919061166b565b60405180910390fd5b5082840390509392505050565b600081836113499190611a00565b905092915050565b60008135905061136081611d9b565b92915050565b60008135905061137581611db2565b92915050565b60006020828403121561139157611390611b4c565b5b600061139f84828501611351565b91505092915050565b600080604083850312156113bf576113be611b4c565b5b60006113cd85828601611351565b92505060206113de85828601611351565b9150509250929050565b60008060006060848603121561140157611400611b4c565b5b600061140f86828701611351565b935050602061142086828701611351565b925050604061143186828701611366565b9150509250925092565b6000806040838503121561145257611451611b4c565b5b600061146085828601611351565b925050602061147185828601611366565b9150509250929050565b60006020828403121561149157611490611b4c565b5b600061149f84828501611366565b91505092915050565b6114b181611a34565b82525050565b6114c081611a46565b82525050565b60006114d1826117c3565b6114db81856117ce565b93506114eb818560208601611a89565b6114f481611b51565b840191505092915050565b600061150c6023836117ce565b915061151782611b6f565b604082019050919050565b600061152f6026836117ce565b915061153a82611bbe565b604082019050919050565b60006115526022836117ce565b915061155d82611c0d565b604082019050919050565b6000611575601d836117ce565b915061158082611c5c565b602082019050919050565b60006115986020836117ce565b91506115a382611c85565b602082019050919050565b60006115bb6021836117ce565b91506115c682611cae565b604082019050919050565b60006115de6025836117ce565b91506115e982611cfd565b604082019050919050565b60006116016024836117ce565b915061160c82611d4c565b604082019050919050565b61162081611a72565b82525050565b61162f81611a7c565b82525050565b600060208201905061164a60008301846114a8565b92915050565b600060208201905061166560008301846114b7565b92915050565b6000602082019050818103600083015261168581846114c6565b905092915050565b600060208201905081810360008301526116a6816114ff565b9050919050565b600060208201905081810360008301526116c681611522565b9050919050565b600060208201905081810360008301526116e681611545565b9050919050565b6000602082019050818103600083015261170681611568565b9050919050565b600060208201905081810360008301526117268161158b565b9050919050565b60006020820190508181036000830152611746816115ae565b9050919050565b60006020820190508181036000830152611766816115d1565b9050919050565b60006020820190508181036000830152611786816115f4565b9050919050565b60006020820190506117a26000830184611617565b92915050565b60006020820190506117bd6000830184611626565b92915050565b600081519050919050565b600082825260208201905092915050565b60006117ea82611a72565b91506117f583611a72565b9250827fffffffffffffffffffffffffffffffffffffffffffffffffffffffffffffffff0382111561182a57611829611aee565b5b828201905092915050565b6000808291508390505b600185111561187f5780860481111561185b5761185a611aee565b5b600185161561186a5780820291505b808102905061187885611b62565b945061183f565b94509492505050565b600061189382611a72565b915061189e83611a7c565b92506118cb7fffffffffffffffffffffffffffffffffffffffffffffffffffffffffffffffff84846118d3565b905092915050565b6000826118e3576001905061199f565b816118f1576000905061199f565b8160018114611907576002811461191157611940565b600191505061199f565b60ff84111561192357611922611aee565b5b8360020a91508482111561193a57611939611aee565b5b5061199f565b5060208310610133831016604e8410600b84101617156119755782820a9050838111156119705761196f611aee565b5b61199f565b6119828484846001611835565b9250905081840481111561199957611998611aee565b5b81810290505b9392505050565b60006119b182611a72565b91506119bc83611a72565b9250817fffffffffffffffffffffffffffffffffffffffffffffffffffffffffffffffff04831182151516156119f5576119f4611aee565b5b828202905092915050565b6000611a0b82611a72565b9150611a1683611a72565b925082821015611a2957611a28611aee565b5b828203905092915050565b6000611a3f82611a52565b9050919050565b60008115159050919050565b600073ffffffffffffffffffffffffffffffffffffffff82169050919050565b6000819050919050565b600060ff82169050919050565b60005b83811015611aa7578082015181840152602081019050611a8c565b83811115611ab6576000848401525b50505050565b60006002820490506001821680611ad457607f821691505b60208210811415611ae857611ae7611b1d565b5b50919050565b7f4e487b7100000000000000000000000000000000000000000000000000000000600052601160045260246000fd5b7f4e487b7100000000000000000000000000000000000000000000000000000000600052602260045260246000fd5b600080fd5b6000601f19601f8301169050919050565b60008160011c9050919050565b7f45524332303a207472616e7366657220746f20746865207a65726f206164647260008201527f6573730000000000000000000000000000000000000000000000000000000000602082015250565b7f4f776e61626c653a206e6577206f776e657220697320746865207a65726f206160008201527f6464726573730000000000000000000000000000000000000000000000000000602082015250565b7f45524332303a20617070726f766520746f20746865207a65726f20616464726560008201527f7373000000000000000000000000000000000000000000000000000000000000602082015250565b7f43616e6e6f74206265206d6f7265207468616e204d6178537570706c79000000600082015250565b7f4f776e61626c653a2063616c6c6572206973206e6f7420746865206f776e6572600082015250565b7f45524332303a206275726e2066726f6d20746865207a65726f2061646472657360008201527f7300000000000000000000000000000000000000000000000000000000000000602082015250565b7f45524332303a207472616e736665722066726f6d20746865207a65726f20616460008201527f6472657373000000000000000000000000000000000000000000000000000000602082015250565b7f45524332303a20617070726f76652066726f6d20746865207a65726f2061646460008201527f7265737300000000000000000000000000000000000000000000000000000000602082015250565b611da481611a34565b8114611daf57600080fd5b50565b611dbb81611a72565b8114611dc657600080fd5b5056fe45524332303a206275726e20616d6f756e7420657863656564732062616c616e636545524332303a207472616e7366657220616d6f756e7420657863656564732062616c616e636545524332303a206275726e20616d6f756e74206578636565647320616c6c6f77616e636545524332303a2064656372656173656420616c6c6f77616e63652062656c6f77207a65726fa264697066735822122015aa4ec9dfa5e984df927ebd175f66d2a359f1077be1ee093089fe355218c3e364736f6c63430008070033",
  "linkReferences": {},
  "deployedLinkReferences": {}
}